{
  "contractName": "EventTicketsV2",
  "abi": [
    {
      "inputs": [],
      "payable": false,
      "stateMutability": "nonpayable",
      "type": "constructor"
    },
    {
      "anonymous": false,
      "inputs": [
        {
          "indexed": false,
          "internalType": "address",
          "name": "buyer",
          "type": "address"
        },
        {
          "indexed": false,
          "internalType": "uint256",
          "name": "eventId",
          "type": "uint256"
        },
        {
          "indexed": false,
          "internalType": "uint256",
          "name": "numTickets",
          "type": "uint256"
        }
      ],
      "name": "LogBuyTickets",
      "type": "event"
    },
    {
      "anonymous": false,
      "inputs": [
        {
          "indexed": false,
          "internalType": "address",
          "name": "owner",
          "type": "address"
        },
        {
          "indexed": false,
          "internalType": "uint256",
          "name": "balance",
          "type": "uint256"
        },
        {
          "indexed": false,
          "internalType": "uint256",
          "name": "eventId",
          "type": "uint256"
        }
      ],
      "name": "LogEndSale",
      "type": "event"
    },
    {
      "anonymous": false,
      "inputs": [
        {
          "indexed": false,
          "internalType": "string",
          "name": "desc",
          "type": "string"
        },
        {
          "indexed": false,
          "internalType": "string",
          "name": "url",
          "type": "string"
        },
        {
          "indexed": false,
          "internalType": "uint256",
          "name": "ticketsAvailable",
          "type": "uint256"
        },
        {
          "indexed": false,
          "internalType": "uint256",
          "name": "eventId",
          "type": "uint256"
        }
      ],
      "name": "LogEventAdded",
      "type": "event"
    },
    {
      "anonymous": false,
      "inputs": [
        {
          "indexed": false,
          "internalType": "address",
          "name": "accountRefunded",
          "type": "address"
        },
        {
          "indexed": false,
          "internalType": "uint256",
          "name": "eventId",
          "type": "uint256"
        },
        {
          "indexed": false,
          "internalType": "uint256",
          "name": "numTickets",
          "type": "uint256"
        }
      ],
      "name": "LogGetRefund",
      "type": "event"
    },
    {
      "constant": true,
      "inputs": [],
      "name": "idGenerator",
      "outputs": [
        {
          "internalType": "uint256",
          "name": "",
          "type": "uint256"
        }
      ],
      "payable": false,
      "stateMutability": "view",
      "type": "function"
    },
    {
      "constant": true,
      "inputs": [],
      "name": "owner",
      "outputs": [
        {
          "internalType": "address payable",
          "name": "",
          "type": "address"
        }
      ],
      "payable": false,
      "stateMutability": "view",
      "type": "function"
    },
    {
      "constant": false,
      "inputs": [
        {
          "internalType": "string",
          "name": "_description",
          "type": "string"
        },
        {
          "internalType": "string",
          "name": "_website",
          "type": "string"
        },
        {
          "internalType": "uint256",
          "name": "_numTickets",
          "type": "uint256"
        }
      ],
      "name": "addEvent",
      "outputs": [
        {
          "internalType": "uint256",
          "name": "eventId",
          "type": "uint256"
        }
      ],
      "payable": false,
      "stateMutability": "nonpayable",
      "type": "function"
    },
    {
      "constant": true,
      "inputs": [
        {
          "internalType": "uint256",
          "name": "_eventId",
          "type": "uint256"
        }
      ],
      "name": "readEvent",
      "outputs": [
        {
          "internalType": "string",
          "name": "description",
          "type": "string"
        },
        {
          "internalType": "string",
          "name": "url",
          "type": "string"
        },
        {
          "internalType": "uint256",
          "name": "ticketAvailable",
          "type": "uint256"
        },
        {
          "internalType": "uint256",
          "name": "sales",
          "type": "uint256"
        },
        {
          "internalType": "bool",
          "name": "isOpen",
          "type": "bool"
        }
      ],
      "payable": false,
      "stateMutability": "view",
      "type": "function"
    },
    {
      "constant": false,
      "inputs": [
        {
          "internalType": "uint256",
          "name": "_eventId",
          "type": "uint256"
        },
        {
          "internalType": "uint256",
          "name": "_numTickets",
          "type": "uint256"
        }
      ],
      "name": "buyTickets",
      "outputs": [],
      "payable": true,
      "stateMutability": "payable",
      "type": "function"
    },
    {
      "constant": false,
      "inputs": [
        {
          "internalType": "uint256",
          "name": "_eventId",
          "type": "uint256"
        }
      ],
      "name": "getRefund",
      "outputs": [],
      "payable": false,
      "stateMutability": "nonpayable",
      "type": "function"
    },
    {
      "constant": true,
      "inputs": [
        {
          "internalType": "uint256",
          "name": "_eventId",
          "type": "uint256"
        }
      ],
      "name": "getBuyerNumberTickets",
      "outputs": [
        {
          "internalType": "uint256",
          "name": "",
          "type": "uint256"
        }
      ],
      "payable": false,
      "stateMutability": "view",
      "type": "function"
    },
    {
      "constant": false,
      "inputs": [
        {
          "internalType": "uint256",
          "name": "_eventId",
          "type": "uint256"
        }
      ],
      "name": "endSale",
      "outputs": [],
      "payable": false,
      "stateMutability": "nonpayable",
      "type": "function"
    }
  ],
  "bytecode": "0x6080604052606460015534801561001557600080fd5b50336000806101000a81548173ffffffffffffffffffffffffffffffffffffffff021916908373ffffffffffffffffffffffffffffffffffffffff160217905550611311806100656000396000f3fe60806040526004361061007b5760003560e01c80638da5cb5b1161004e5780638da5cb5b146102bf578063d2f0be9914610316578063e1ba30a914610351578063e7bd92b91461048a5761007b565b806304d1a846146100805780633ddedd38146100bb5780634da19f201461010a5780638627df4614610287575b600080fd5b34801561008c57600080fd5b506100b9600480360360208110156100a357600080fd5b81019080803590602001909291905050506104b5565b005b3480156100c757600080fd5b506100f4600480360360208110156100de57600080fd5b810190808035906020019092919050505061075d565b6040518082815260200191505060405180910390f35b34801561011657600080fd5b506102716004803603606081101561012d57600080fd5b810190808035906020019064010000000081111561014a57600080fd5b82018360208201111561015c57600080fd5b8035906020019184600183028401116401000000008311171561017e57600080fd5b91908080601f016020809104026020016040519081016040528093929190818152602001838380828437600081840152601f19601f820116905080830192505050505050509192919290803590602001906401000000008111156101e157600080fd5b8201836020820111156101f357600080fd5b8035906020019184600183028401116401000000008311171561021557600080fd5b91908080601f016020809104026020016040519081016040528093929190818152602001838380828437600081840152601f19601f820116905080830192505050505050509192919290803590602001909291905050506107ba565b6040518082815260200191505060405180910390f35b6102bd6004803603604081101561029d57600080fd5b810190808035906020019092919080359060200190929190505050610a6c565b005b3480156102cb57600080fd5b506102d4610d7b565b604051808273ffffffffffffffffffffffffffffffffffffffff1673ffffffffffffffffffffffffffffffffffffffff16815260200191505060405180910390f35b34801561032257600080fd5b5061034f6004803603602081101561033957600080fd5b8101908080359060200190929190505050610da0565b005b34801561035d57600080fd5b5061038a6004803603602081101561037457600080fd5b8101908080359060200190929190505050611035565b60405180806020018060200186815260200185815260200184151515158152602001838103835288818151815260200191508051906020019080838360005b838110156103e45780820151818401526020810190506103c9565b50505050905090810190601f1680156104115780820380516001836020036101000a031916815260200191505b50838103825287818151815260200191508051906020019080838360005b8381101561044a57808201518184015260208101905061042f565b50505050905090810190601f1680156104775780820380516001836020036101000a031916815260200191505b5097505050505050505060405180910390f35b34801561049657600080fd5b5061049f611200565b6040518082815260200191505060405180910390f35b6000809054906101000a900473ffffffffffffffffffffffffffffffffffffffff1673ffffffffffffffffffffffffffffffffffffffff163373ffffffffffffffffffffffffffffffffffffffff1614610577576040517f08c379a00000000000000000000000000000000000000000000000000000000081526004018080602001828103825260138152602001807f6f6e6c79206f776e65722063616e2063616c6c0000000000000000000000000081525060200191505060405180910390fd5b806003600082815260200190815260200160002060040160009054906101000a900460ff1661060e576040517f08c379a00000000000000000000000000000000000000000000000000000000081526004018080602001828103825260138152602001807f746865206576656e7420697320636c6f7365640000000000000000000000000081525060200191505060405180910390fd5b60006003600084815260200190815260200160002060040160006101000a81548160ff021916908315150217905550600060015460036000858152602001908152602001600020600301540290506000809054906101000a900473ffffffffffffffffffffffffffffffffffffffff1673ffffffffffffffffffffffffffffffffffffffff166108fc829081150290604051600060405180830381858888f193505050501580156106c3573d6000803e3d6000fd5b507f6497e6dff32a753fe6b3a2b3430e5f86d65c6e35cf360d52eb3494711d7d7a1c6000809054906101000a900473ffffffffffffffffffffffffffffffffffffffff168285604051808473ffffffffffffffffffffffffffffffffffffffff1673ffffffffffffffffffffffffffffffffffffffff168152602001838152602001828152602001935050505060405180910390a1505050565b60006003600083815260200190815260200160002060050160003373ffffffffffffffffffffffffffffffffffffffff1673ffffffffffffffffffffffffffffffffffffffff168152602001908152602001600020549050919050565b60008060009054906101000a900473ffffffffffffffffffffffffffffffffffffffff1673ffffffffffffffffffffffffffffffffffffffff163373ffffffffffffffffffffffffffffffffffffffff161461087e576040517f08c379a00000000000000000000000000000000000000000000000000000000081526004018080602001828103825260138152602001807f6f6e6c79206f776e65722063616e2063616c6c0000000000000000000000000081525060200191505060405180910390fd5b610886611206565b6040518060a001604052808681526020018581526020018481526020016000815260200160011515815250905060026000815480929190600101919050559150806003600084815260200190815260200160002060008201518160000190805190602001906108f6929190611237565b506020820151816001019080519060200190610913929190611237565b50604082015181600201556060820151816003015560808201518160040160006101000a81548160ff0219169083151502179055509050507f7d1d82c13762b51876068c852c5d404d0fa38fb615c14eebefafb60bdb4bd1b285858585604051808060200180602001858152602001848152602001838103835287818151815260200191508051906020019080838360005b838110156109c05780820151818401526020810190506109a5565b50505050905090810190601f1680156109ed5780820380516001836020036101000a031916815260200191505b50838103825286818151815260200191508051906020019080838360005b83811015610a26578082015181840152602081019050610a0b565b50505050905090810190601f168015610a535780820380516001836020036101000a031916815260200191505b50965050505050505060405180910390a1509392505050565b816003600082815260200190815260200160002060040160009054906101000a900460ff16610b03576040517f08c379a00000000000000000000000000000000000000000000000000000000081526004018080602001828103825260138152602001807f746865206576656e7420697320636c6f7365640000000000000000000000000081525060200191505060405180910390fd5b6003600084815260200190815260200160002060030154600360008581526020019081526020016000206002015403821115610ba7576040517f08c379a000000000000000000000000000000000000000000000000000000000815260040180806020018281038252601c8152602001807f6e6f7420656e6f75676820617661696c61626c65207469636b6574730000000081525060200191505060405180910390fd5b6001548202341015610c21576040517f08c379a000000000000000000000000000000000000000000000000000000000815260040180806020018281038252600f8152602001807f6e6f74207061696420656e6f756768000000000000000000000000000000000081525060200191505060405180910390fd5b816003600085815260200190815260200160002060050160003373ffffffffffffffffffffffffffffffffffffffff1673ffffffffffffffffffffffffffffffffffffffff1681526020019081526020016000206000828254019250508190555081600360008581526020019081526020016000206003016000828254019250508190555060006001548302340390506000811115610d02573373ffffffffffffffffffffffffffffffffffffffff166108fc829081150290604051600060405180830381858888f19350505050158015610d00573d6000803e3d6000fd5b505b7f15827fa78fedf80f93aa72ce61e705b1362cab60ae596b1bb327076fc3856c24338585604051808473ffffffffffffffffffffffffffffffffffffffff1673ffffffffffffffffffffffffffffffffffffffff168152602001838152602001828152602001935050505060405180910390a150505050565b6000809054906101000a900473ffffffffffffffffffffffffffffffffffffffff1681565b806003600082815260200190815260200160002060040160009054906101000a900460ff16610e37576040517f08c379a00000000000000000000000000000000000000000000000000000000081526004018080602001828103825260138152602001807f746865206576656e7420697320636c6f7365640000000000000000000000000081525060200191505060405180910390fd5b60006003600084815260200190815260200160002060050160003373ffffffffffffffffffffffffffffffffffffffff1673ffffffffffffffffffffffffffffffffffffffff1681526020019081526020016000205411610e9757600080fd5b60006003600084815260200190815260200160002060050160003373ffffffffffffffffffffffffffffffffffffffff1673ffffffffffffffffffffffffffffffffffffffff16815260200190815260200160002054905060006003600085815260200190815260200160002060050160003373ffffffffffffffffffffffffffffffffffffffff1673ffffffffffffffffffffffffffffffffffffffff168152602001908152602001600020819055508060036000858152602001908152602001600020600301600082825403925050819055506000600154820290503373ffffffffffffffffffffffffffffffffffffffff166108fc829081150290604051600060405180830381858888f19350505050158015610fbb573d6000803e3d6000fd5b507f73ebb2050cb3ee6869929e7a26925e92e201f14902e155037f1f90af931b3233338584604051808473ffffffffffffffffffffffffffffffffffffffff1673ffffffffffffffffffffffffffffffffffffffff168152602001838152602001828152602001935050505060405180910390a150505050565b6060806000806000600360008781526020019081526020016000206000018054600181600116156101000203166002900480601f0160208091040260200160405190810160405280929190818152602001828054600181600116156101000203166002900480156110e75780601f106110bc576101008083540402835291602001916110e7565b820191906000526020600020905b8154815290600101906020018083116110ca57829003601f168201915b50505050509450600360008781526020019081526020016000206001018054600181600116156101000203166002900480601f0160208091040260200160405190810160405280929190818152602001828054600181600116156101000203166002900480156111985780601f1061116d57610100808354040283529160200191611198565b820191906000526020600020905b81548152906001019060200180831161117b57829003601f168201915b5050505050935060036000878152602001908152602001600020600201549250600360008781526020019081526020016000206003015491506003600087815260200190815260200160002060040160009054906101000a900460ff16905091939590929450565b60025481565b6040518060a00160405280606081526020016060815260200160008152602001600081526020016000151581525090565b828054600181600116156101000203166002900490600052602060002090601f016020900481019282601f1061127857805160ff19168380011785556112a6565b828001600101855582156112a6579182015b828111156112a557825182559160200191906001019061128a565b5b5090506112b391906112b7565b5090565b6112d991905b808211156112d55760008160009055506001016112bd565b5090565b9056fea265627a7a72315820bcb1a9a20ceeed116c1a852bd7638b58cd692ba02df9a349aa5b337df0fe128264736f6c63430005100032",
  "source": "pragma solidity ^0.5.0;\r\n\r\n\r\n// The EventTicketsV2 contract keeps track of the details and ticket sales of multiple events.\r\n\r\ncontract EventTicketsV2 {\r\n\t// Define an public owner variable. Set it to the creator of the contract when it is initialized.\r\n\r\n\taddress payable public owner;\r\n\tuint256 PRICE_TICKET = 100 wei;\r\n\r\n\t// Create a variable to keep track of the event ID numbers.\r\n\tuint256 public idGenerator;\r\n\r\n\t// Define an Event struct, similar to the V1 of this contract.\r\n\t// The struct has 6 fields: description, website (URL), totalTickets, sales, buyers, and isOpen.\r\n\t// Choose the appropriate variable type for each field.\r\n\t// The \"buyers\" field should keep track of addresses and how many tickets each buyer purchases.\r\n\r\n\tstruct Event {\r\n\t\tstring description;\r\n\t\tstring website;\r\n\t\tuint256 totalTickets;\r\n\t\tuint256 sales;\r\n\t\tbool isOpen;\r\n\t\tmapping(address => uint256) buyers;\r\n\t}\r\n\r\n\t// Create a mapping to keep track of the events.\r\n\t// The mapping key is an integer, the value is an Event struct.\r\n\t// Call the mapping \"events\".\r\n\r\n\tmapping(uint256 => Event) events;\r\n\r\n\tevent LogEventAdded(\r\n\t\tstring desc,\r\n\t\tstring url,\r\n\t\tuint256 ticketsAvailable,\r\n\t\tuint256 eventId\r\n\t);\r\n\tevent LogBuyTickets(address buyer, uint256 eventId, uint256 numTickets);\r\n\tevent LogGetRefund(\r\n\t\taddress accountRefunded,\r\n\t\tuint256 eventId,\r\n\t\tuint256 numTickets\r\n\t);\r\n\tevent LogEndSale(address owner, uint256 balance, uint256 eventId);\r\n\r\n\t/*\r\n        Create a modifier that throws an error if the msg.sender is not the owner.\r\n    */\r\n\tmodifier onlyOwner() {\r\n\t\trequire(msg.sender == owner, 'only owner can call');\r\n\t\t_;\r\n\t}\r\n\r\n\tmodifier isOpened(uint256 _eventId) {\r\n\t\trequire(events[_eventId].isOpen, 'the event is closed');\r\n\t\t_;\r\n\t}\r\n\r\n\tconstructor() public {\r\n\t\towner = msg.sender;\r\n\t}\r\n\r\n\t/*\r\n        Define a function called addEvent().\r\n        This function takes 3 parameters, an event description, a URL, and a number of tickets.\r\n        Only the contract owner should be able to call this function.\r\n        In the function:\r\n            - Set the description, URL and ticket number in a new event.\r\n            - set the event to open\r\n            - set an event ID\r\n            - increment the ID\r\n            - emit the appropriate event\r\n            - return the event's ID\r\n    */\r\n\tfunction addEvent(\r\n\t\tstring memory _description,\r\n\t\tstring memory _website,\r\n\t\tuint256 _numTickets\r\n\t) public onlyOwner returns (uint256 eventId) {\r\n\t\tEvent memory newEvent = Event(_description, _website, _numTickets, 0, true);\r\n\t\teventId = idGenerator++;\r\n\t\tevents[eventId] = newEvent;\r\n\t\temit LogEventAdded(_description, _website, _numTickets, eventId);\r\n\t}\r\n\r\n\t/*\r\n        Define a function called readEvent().\r\n        This function takes one parameter, the event ID.\r\n        The function returns information about the event this order:\r\n            1. description\r\n            2. URL\r\n            3. ticket available\r\n            4. sales\r\n            5. isOpen\r\n    */\r\n\r\n\tfunction readEvent(uint256 _eventId)\r\n\t\tpublic\r\n\t\tview\r\n\t\treturns (\r\n\t\t\tstring memory description,\r\n\t\t\tstring memory url,\r\n\t\t\tuint256 ticketAvailable,\r\n\t\t\tuint256 sales,\r\n\t\t\tbool isOpen\r\n\t\t)\r\n\t{\r\n\t\tdescription = events[_eventId].description;\r\n\t\turl = events[_eventId].website;\r\n\t\tticketAvailable = events[_eventId].totalTickets;\r\n\t\tsales = events[_eventId].sales;\r\n\t\tisOpen = events[_eventId].isOpen;\r\n\t}\r\n\r\n\t/*\r\n        Define a function called buyTickets().\r\n        This function allows users to buy tickets for a specific event.\r\n        This function takes 2 parameters, an event ID and a number of tickets.\r\n        The function checks:\r\n            - that the event sales are open\r\n            - that the transaction value is sufficient to purchase the number of tickets\r\n            - that there are enough tickets available to complete the purchase\r\n        The function:\r\n            - increments the purchasers ticket count\r\n            - increments the ticket sale count\r\n            - refunds any surplus value sent\r\n            - emits the appropriate event\r\n    */\r\n\tfunction buyTickets(uint256 _eventId, uint256 _numTickets)\r\n\t\tpublic\r\n\t\tpayable\r\n\t\tisOpened(_eventId)\r\n\t{\r\n\t\trequire(\r\n\t\t\t_numTickets <= (events[_eventId].totalTickets - events[_eventId].sales),\r\n\t\t\t'not enough available tickets'\r\n\t\t);\r\n\t\trequire(msg.value >= _numTickets * PRICE_TICKET, 'not paid enough');\r\n\t\tevents[_eventId].buyers[msg.sender] += _numTickets;\r\n\t\tevents[_eventId].sales += _numTickets;\r\n\t\tuint256 refund = msg.value - _numTickets * PRICE_TICKET;\r\n\t\tif (refund > 0) {\r\n\t\t\tmsg.sender.transfer(refund);\r\n\t\t}\r\n\t\temit LogBuyTickets(msg.sender, _eventId, _numTickets);\r\n\t}\r\n\r\n\t/*\r\n        Define a function called getRefund().\r\n        This function allows users to request a refund for a specific event.\r\n        This function takes one parameter, the event ID.\r\n        TODO:\r\n            - check that a user has purchased tickets for the event\r\n            - remove refunded tickets from the sold count\r\n            - send appropriate value to the refund requester\r\n            - emit the appropriate event\r\n    */\r\n\tfunction getRefund(uint256 _eventId) public isOpened(_eventId) {\r\n\t\trequire(events[_eventId].buyers[msg.sender] > 0);\r\n\t\tuint256 numTickets = events[_eventId].buyers[msg.sender];\r\n\t\tevents[_eventId].buyers[msg.sender] = 0;\r\n\t\tevents[_eventId].sales -= numTickets;\r\n\t\tuint256 refund = numTickets * PRICE_TICKET;\r\n\t\tmsg.sender.transfer(refund);\r\n\t\temit LogGetRefund(msg.sender, _eventId, numTickets);\r\n\t}\r\n\r\n\t/*\r\n        Define a function called getBuyerNumberTickets()\r\n        This function takes one parameter, an event ID\r\n        This function returns a uint, the number of tickets that the msg.sender has purchased.\r\n    */\r\n\tfunction getBuyerNumberTickets(uint256 _eventId)\r\n\t\tpublic\r\n\t\tview\r\n\t\treturns (uint256)\r\n\t{\r\n\t\treturn events[_eventId].buyers[msg.sender];\r\n\t}\r\n\r\n\t/*\r\n        Define a function called endSale()\r\n        This function takes one parameter, the event ID\r\n        Only the contract owner can call this function\r\n        TODO:\r\n            - close event sales\r\n            - transfer the balance from those event sales to the contract owner\r\n            - emit the appropriate event\r\n    */\r\n\tfunction endSale(uint256 _eventId) public onlyOwner isOpened(_eventId) {\r\n\t\tevents[_eventId].isOpen = false;\r\n\t\tuint256 balance = events[_eventId].sales * PRICE_TICKET;\r\n\t\towner.transfer(balance);\r\n\t\temit LogEndSale(owner, balance, _eventId);\r\n\t}\r\n}\r\n",
  "sourcePath": "C:\\Users\\tobog\\Documents\\GitHub\\event-ticket-exercise\\contracts\\EventTicketsV2.sol",
  "compiler": {
    "name": "solc",
    "version": "0.5.16+commit.9c3226ce.Emscripten.clang"
  },
  "schemaVersion": "3.0.23",
  "updatedAt": "2020-05-13T16:36:01.694Z",
  "networkType": "ethereum",
  "devdoc": {
    "methods": {}
  },
  "userdoc": {
    "methods": {}
  }
}